S00F00004F43544F4432302E737265633A
S113000088220020F5280000F1280000F1280000D3
S113001000000000000000000000000000000000DC
S1130020000000000000000000000000F1280000B3
S11300300000000000000000F1280000F12800008A
S1130040F1280000F1280000F12800003D0C000018
S1130050F5080000F1280000F12800008D160000CA
S11300609D160000AD160000BD1600000000000043
S113007000000000F1280000F1280000F128000031
S1130080F1280000F1280000F12800000000000021
S11300900000000045060000F12800004D080000A3
S11300A0F128000010B5064C2378002B07D1054B2E
S11300B0002B02D0044800E000BF0123237010BDD0
S11300C07800002000000000703E0000084B10B5CE
S11300D0002B03D00749084800E000BF0748036825
S11300E0002B00D110BD064B002BFBD09847F9E73D
S11300F0000000007C000020703E0000703E000004
S11301000000000070B50020084B98470500084C1B
S1130110FA218900A047074B186007492800A04727
S1130120064B18600522064B1A6070BD812600003C
S1130130593000000000002040420F00040000205D
S113014010E000E030B5084B1C68084A0025802107
S11301504902013807D3002CFBD054609560136822
S11301600B42FCD0F5E730BD0400002010E000E0B5
S113017030B5084B1C68084A002580214902013823
S113018007D3002CFBD05460956013680B42FCD05D
S1130190F5E730BD0000002010E000E010B50022BB
S11301A000230270427000214280017103760262D2
S11301B0C26182600373C0246401C4810374437404
S11301C08374C37403752A24035543758375063CED
S11301D00355C2840285C1752B23C1540133C15414
S11301E010BD0000F0B5DE4657464E464546E0B524
S11301F097B0070016000160794A106A80235B02F9
S1130200034313620B780520DB0706D517B03CBC0B
S113021090469946A246AB46F0BD0B7817309B0733
S1130220F4D473783B71002B04D16E4A136C04210F
S11302300B4313640023BB60FB603B61BB76FB761E
S11302403B833B77684B1F602A23F35C002B05D16B
S1130250337D002B02D101337B7701E000237B77D0
S1130260624B1B681B041B0F98463B689B46337804
S11302706A461370694617205D4B984717205D4BFB
S113028098472C23F25C002A5AD0013BF55C337B5F
S1130290EB18DBB2D118C9B28B4227D25219D3B2B0
S11302A09946554B9A4633004E46B9461F0003E023
S11302B00135EDB2B54217D00F242C403B7BE41836
S11302C050224E4902A8D047132CF1D8A40002AB07
S11302D0E05801A900234B70CB708B7001330B7075
S11302E0C0B2474B9847E3E73E004F46F48950229B
S11302F0424902A8404B9847132C13D9737D9B00A5
S1130300DBB25A461370B37DDB0172781343DBB260
S11303105A4653703379342B00D986E19B00394A0D
S1130320D3589F46A40002ABE05801A900234B70A8
S1130330CB708B7001330B70C0B2314B9847DDE743
S1130340347B50222D4902A82B4B9847132C15D9E6
S1130350F4895022294902A8274B9847132CCDD859
S1130360A40002ABE05801A900234B70CB708B7042
S113037001330B70C0B2224B9847BFE7A40002AB15
S1130380E05801A900234B70CB708B7001330B70C4
S1130390C0B21B4B9847DBE704231024022136E04C
S11303A0717C337C102432E04346022B00D8D8E021
S11303B00623102401212AE04346022B00D8D4E06E
S11303C008231024002122E00023302400211EE011
S11303D00023202400211AE000230024002116E039
S11303E00004004000080040E00000201820004104
S11303F0992700000D270000E13300000C3D0000A8
S113040091280000383C0000022310240121090136
S113041070220A4013435A469370F37D17203F2BF2
S113042000D9F3E6D3703A68537E5BB2002BFBDB52
S1130430F37C728813432422B25CD2001343327DCE
S113044092001343B27C5200134323435A469380D1
S1130450337E002B20D0102C00D1C8E000D888E0D7
S1130460202C00D1A5E0302C16D1F27C002A0AD031
S1130470F26980321720FF2A00D9C7E6326A803237
S1130480FF2A00D9C2E61720F269FF2A00DDBDE683
S1130490326AFF2A00DDB9E639684A7E52B2002A80
S11304A0FBDB5A4613723A68537E5BB2002BFBDBCC
S11304B0B38B5A4693833A68537E5BB2002BFBDBC3
S11304C0338C5A4613842C23F35C002B05D0013B58
S11304D0DBB217200F2B00D998E62B22B15C172032
S11304E00F2900D992E63868427E52B2002AFBDB1B
S11304F0F289307B0243B068024309050A431B04B6
S113050013435A4613612A23F35C13750F2393751F
S11305101533F35C002B12D0F38C454A1720934219
S113052000D973E65A469384328D80231B01D31875
S11305303F499BB28B4200D968E65B46DA843D4B67
S11305401B685B01E022D20013403B4A5168490119
S11305501268D20E0A43D2B213435A4613850020BE
S113056054E606231024032151E708231024042110
S11305704DE7002C90D1F27C002A0FD0F269802143
S113058009018C4662442A4917208A4200D93DE673
S1130590326A624426498A4200D937E6244A17203F
S11305A0F169914200DD31E6316A914200DD2DE6C8
S11305B072E7F27C002A0FD0F269802189008C4610
S11305C062441E4917208A4200D91FE6326A6244F7
S11305D01A498A4200D919E6184A1720F16991424A
S11305E000DD13E6316A914200DD0FE654E7F27C48
S11305F0002A0FD0F269802109028C466244104916
S113060017208A4200D901E6326A62440C498A42C0
S113061000D9FBE50A4A1720F169914200DDF5E5AE
S1130620316A914200DDF1E536E71720EEE5C04678
S1130630FF0F00002460800020608000FF030000A2
S1130640FFFF000070B52E4B1C6823681D7EEDB2C1
S1130650EA0705D5E27ED20702D5A27ED20716D4D8
S11306606B0708D5042322681376E37E9B0702D523
S1130670A37E9B073CD4AB0708D5022322681376DC
S1130680E37E5B0702D5A37E5B0735D470BD0122F0
S11306901A762268537E5BB2002BFBDB61698B1CEC
S11306A06361538B9BB20B80238B013B9BB22383EF
S11306B0002B11D0637F002BD2D02268537E5BB213
S11306C0002BFBDB137B02210B4313732268537E45
S11306D05BB2002BFBDBC3E7237F052BC0D10023D8
S11306E023770133226893752000A3689847B7E7FE
S11306F02000E3689847BEE7236920009847C5E7D0
S1130700E00000200368D879C00970470023037013
S11307100122427083700371C370437170470000FB
S1130720F0B5C64600B582B0050014000160284A41
S1130730106A8023DB02034313620B781C209B079F
S113074003D502B004BC9046F0BD0B781738DB0724
S1130750F7D401A9E3780B7015301E4B98471A2083
S11307601D4B984700266B465E70DE7001236A4677
S11307701370967069460220184B98472F68637867
S11307802B71AE7163795A1E93419B002278904677
S1130790A278002A03D004224146114388462279D4
S11307A0002A03D00822414611438846DBB23B703D
S11307B00B4E2800B0470028FBD143467B702378BA
S11307C06B7100236B61AB61EB61064B1D60B8E795
S11307D000040040992700000D2700009128000024
S11307E005070000E400002070B504000668737873
S11307F0027913437370094D2000A8470028FBD1E8
S113080033780222134333706379002B04D1044AF2
S1130810136C04210B43136470BDC046050700002C
S113082000080040F8B5040017000668064D2000D3
S1130830A8470028FBD1A379002B02D137810020DF
S1130840F8BDB781FBE7C0460507000070B5274B2C
S11308501C682568AB79DB0707D50123AB7123003E
S1130860143302D0637C002B31D1AB799B0738D58C
S11308700223AB71A3899BB2002B2CD0E3899BB2DA
S11308805A1C92B2E2815B00A268944663441B88BE
S11308909BB2AB81A389013B9BB2A381A3899BB289
S11308A0002B18D100222033E2541E3B2B71AB7174
S11308B0802109047E330E4AD1502300143310D012
S11308C0A37C002B0AD00020E369984706E00020AF
S11308D0A3699847C9E72300143302D0237C002B73
S11308E000D170BD636900209847FAE7E400002056
S11308F000E100E070B50022104B1A70002310498B
S11309001F25104E0D4C0AE00D4908E023780133F1
S1130910DBB223700F2B10D800211F2BF4D9280031
S113092018400122824008691042EFD00A619B00FE
S11309309B59002BEAD09847E8E770BDE8000020F7
S113094000180040EC000020044A137802210B43F5
S1130950137053785BB2002BFBDB70470018004028
S113096000B583B0124A936940210B43936101A9F6
S113097000230B7003200F4B984703200E4B98471E
S11309800E4A137801210B43137053785BB2002B8A
S1130990FBDB0B4B19004031002204C39942FCD10C
S11309A01022084B1A60084B984703B000BDC0469C
S11309B000040040992700000D27000000180040A3
S11309C0EC00002000E100E04909000000B583B01C
S11309D001AB80221A700A785A704A789A708A7821
S11309E0DA701900014B984703B000BD912800004C
S11309F00368987AC009704770B504000668082235
S1130A00054B1A60054D2000A8470028FBD1338808
S1130A1002221343338070BD00E100E0F1090000BD
S1130A2070B50400066808218023074AD150074D99
S1130A302000A8470028FBD1C123B3713372338847
S1130A4002229343338070BD00E100E0F10900000D
S1130A5070B504000668074B98470023A382E3821D
S1130A60054D2000A8470028FBD1338801221343F9
S1130A70338070BD210A0000F1090000F0B583B095
S1130A800400019115000668114F2000B8470028A2
S1130A90FBD12379002B0AD0012B16D11730012D5D
S1130AA014D80635AD00019BAB5100200EE0172091
S1130AB0022D0BD8074B019A9A4207D86B469B88A4
S1130AC00C356D00AB53002000E01A2003B0F0BDDC
S1130AD0F1090000FFFF0000F0B583B00400160028
S1130AE001602E4A936920210B43936101A90223DB
S1130AF00B7002202A4B984702202A4B984720006B
S1130B00294B9847B378237133796371274B1C6061
S1130B10276833883B80B378002B21D01720012B22
S1130B201CD13B889BB23B80F378002B03D03B88DD
S1130B30802213433B801E4D2000A8470028FBD190
S1130B400022B16820001B4B984733790020002B0A
S1130B5004D07B888022D20113437B8003B0F0BD94
S1130B603B88042213433B80F3781720002BF5D1F4
S1130B700F4D2000A8470028FBD10022B1682000B7
S1130B800C4B98470A4D2000A8470028FBD10122AE
S1130B90F1682000074B9847D7E7C046000400409F
S1130BA0992700000D270000510A00002C010020A5
S1130BB0F10900007D0A0000F8B504000E00037975
S1130BC01520002B00D0F8BD2768034D2000A8474E
S1130BD00028FBD1BE82F6E7F1090000022A0BD0FF
S1130BE00379002B05D0012B12D11633012A0DD81D
S1130BF002E01723022A09D8931C9B001950838A08
S1130C00012191400B439BB283820023180070475B
S1130C101723FBE710B5046802290BD001228A4090
S1130C2003231340E371C38A01228A4013439BB216
S1130C30C38210BD8023E371F5E7000010B5144BA7
S1130C401A681468D18A938A1940207AE379034098
S1130C5058B2002806DBD8070FD5CB070AD40123E6
S1130C60237210BD4B0702D480232372F9E7136962
S1130C709847F9E793689847F1E79B07F1D58B0705
S1130C8002D402232372ECE7D3689847F9E7C046FD
S1130C902C0100200268138A1BB2002BFBDB704777
S1130CA003689A7B920707D502229A731B8A9B07D3
S1130CB04120DB17184070471A8A520706D5596835
S1130CC0C02292020A435A601820F4E70020F2E797
S1130CD030B50268002301240225917B21420BD107
S1130CE0917B294206D101339BB201899942F4D800
S1130CF0122002E0002000E0002030BDF0B5DE4606
S1130D0057464E464546E0B583B006008946056819
S1130D104C880B885B0001221343DBB22B75324BEA
S1130D20984701906B68314A13406B60002807D0E4
S1130D30019803B03CBC90469946A246AB46F0BD30
S1130D4030002B4B984701900028F1D1013CA4B20C
S1130D508046284B9A46284B9B4611E03000D847E2
S1130D6043465F1CBFB22B7E4A46526841465354E9
S1130D7030001D4B9847013CA4B2002812D1B8465C
S1130D80544511D02B8A9B062BD5F37A002BE5D042
S1130D90002CE3D16A688023DB0213436B60013CBF
S1130DA0A4B2EDE7B8460190B37A002B10D030001E
S1130DB0114B98476A68C0239B0213436B60300051
S1130DC00D4B98472A7E4B465B6841465A54AFE721
S1130DD03000094B98476A6880235B0213436B60B9
S1130DE0EDE741230193A3E7D10C0000FFFFFBFFD4
S1130DF0A10C0000FFFF0000950C0000F0B5DE46DA
S1130E0057464E464546E0B583B006000F000568D8
S1130E104C88244B98473B885B00DBB22B75300031
S1130E20214B98470190002807D0019803B03CBC9F
S1130E3090469946A246AB46F0BD30001B4B9847FE
S1130E40031E0190F1D1A046002420339946154B8E
S1130E509B46154B9A46444514D02B8A4A46134266
S1130E601CD03000D8477B681B5D2B763000D04700
S1130E70002806D12B8A01345B07ECD51E2301938D
S1130E8000E00190B37A002BCFD03000054B984797
S1130E906A68C0239B0213436B60C6E74123019336
S1130EA0C3E7C046950C0000D10C0000A10C000063
S1130EB0F0B5CE46474680B583B007000D00160056
S1130EC039600800524B9847524A116A841C012326
S1130ED0A3400B43136201A933790B700D30C4B2E4
S1130EE020004D4B984720004C4B98473079002107
S1130EF04B4B98472B681C209B0704D503B00CBCB4
S1130F0090469946F0BD2B681738DB07F6D438684D
S1130F103F4B9846984704004249434B9847A400E6
S1130F20424BE75000233B767B76002291467B833D
S1130F30BB8325224946B9543B6214332B603C6879
S1130F402000C047804680236A4613706B464A4699
S1130F505A7001236A4693706B464A46DA70706988
S1130F60B569002848D06B46187002236A4653704E
S1130F70000CC0B269462E4B9847002D41D06B46F9
S1130F801D7002236A465370280CC0B26946284B70
S1130F909847B389FB80F3893B81327C8023002A04
S1130FA004D1244B9B789B07DB0FDB01B26813430E
S1130FB0327F002A02D08022D20513432268316A8C
S1130FC00A431343236080235B00636045460D3569
S1130FD0E8B2194B98473368FA21C90059434B1EAC
S1130FE01818164B9847431F4020FF2B00D985E75C
S1130FF0DBB26381002081E700212000104B984779
S1131000B1E7012120000E4B98470500B7E7C04621
S1131010DD15000000040040992700000D270000A2
S1131020951400004D110000291600003001002025
S11310309128000000200041B5270000593000002D
S1131040E114000010B5838B9BB20522002B01D064
S1131050100010BD01338372C372024B9847020023
S1131060F6E7C046FD0C000010B5838B9BB2052249
S1131070002B01D0100010BD01338372C372024BE8
S113108098470200F6E7C046FD0D00000268138A87
S11310901BB2002BFBDB704770B504000668458B60
S11310A0838BED1AADB2838B013B9BB28383838B1D
S11310B09BB2002B1CD1C37A002B04D0726880230E
S11310C0DB0213437360A37A002B08D020000F4B7C
S11310D098477268C0239B02134373600CE020009E
S11310E00A4B9847726880235B021343736003E0E2
S11310F07368074A134073602000044B9847236ABF
S11311005D19337EDBB22B7070BDC0468D100000BC
S1131110FFFFFBFF70B5040005682B8A5B0703D54E
S11311201E222523C25470BD468B838BF61AB6B299
S1131130838B013B9BB28383034B9847236A9E199D
S11311403378DBB22B76EEE78D10000070B58000AB
S11311506E4BC4582668637E257E1D40638B9BB20C
S1131160002B03D1A38B9BB2002B41D1638B9BB289
S1131170002B08D0A38B9BB2002B04D12533E35C56
S1131180052B00D166E0638B9BB2002B0AD0A38BA6
S11311909BB2002B06D0338A9B0600D57BE041220C
S11311A02523E254638B9BB2002B08D0A38B9BB204
S11311B0002B04D12533E35C052B00D177E02523F4
S11311C0E35C052B13D02523E35C002B0FD0032312
S11311D0337300236383A3832533E35C412B03D060
S11311E0A37A002B00D084E06B0700D58AE070BDA1
S11311F0B37BDB0707D50123B373338A9B0702D57F
S113120041222523E254338A5B0707D5182225237C
S1131210E2540023A383A37A002B0ED1A38B9BB2A9
S113122063832523E35C052BBCD11F33E35C002BD4
S11312300CD02000364B9847B4E72000354B984734
S11312407268C0239B0213437360E7E72000324BAC
S11312509847A7E71F33E35C002B00D093E70333E1
S113126033730023638325330022E254A37A002BD3
S113127008D10123B373EB0700D493E7E36820009C
S113128098478FE72000234B98477268C0239B023E
S113129013437360EFE72423E35C002B03D12000A6
S11312A01D4B98477EE72000194B98477AE71F3378
S11312B0E35C012B00D082E70233337300236383A2
S11312C025330022E254AB0703D52423E35C012B2E
S11312D00BD0EB0700D472E72423E35C002B00D08F
S11312E06DE7E3682000984769E723692000984781
S11312F065E72000074B98477268E023DB0213433D
S1131300736071E763692000984770E7300100203B
S1131310991000008D10000015110000F0B5DE4694
S113132057464E464546E0B587B0804604911600C0
S11313301F000022002300218B463F2401202100AE
S1131340009601975C4603944446059413E02024D8
S1131350641A0500E540A84614E0009C019D121B98
S1131360AB415C464D462C43A346039C45462C4367
S11313700394013925D3202464420C19E7D40500D1
S1131380A540A84604008C40A14692185B41140075
S11313901D00059E4F463E40B446049E47463E40CF
S11313A0B246664657463E4303D006002643320003
S11313B02B00009C019D9D42DBD8CED19442D8D80D
S11313C0CBE7039B5846190007B03CBC90469946AE
S11313D0A246AB46F0BD10B5490840230024814223
S11313E002D2180010BD1C00091A631C9BB288426B
S11313F0F9D94023FF2CF4D814800023F1E700002E
S1131400F0B583B00F00160008AA117804004C430D
S11314104022BC4202D9100003B0F0BD002B14D10D
S1131420020008000021194CA04701003A000023E3
S11314300020174CA04700220123121A8B41120CE2
S11314401B041A4332800022E5E70022012BF9D164
S11314500A00002300210D4CA04702000B0000925B
S11314600193380000210A4CA047050080239B010A
S113147040229842CFD8790FF800009A019BA047E8
S1131480EA00821AD2B252032A43DBE74533000052
S11314901D13000010B582B004000E4B1B78002B06
S11314A007D0002905D10B4B5B78834210D01D2057
S11314B00CE001A90C700C20074B98470C20074B3B
S11314C09847044B5C7001221A70002002B010BDD2
S11314D00020FBE794000020992700000D2700005E
S11314E02B4B984223D00FD92A4B98422FD02A4B0A
S11314F0984242D101293AD0002946D0022938D055
S1131500032938D0002039E0244B984235D10129F1
S113151007D0002933D0022905D0032905D00020A3
S11315202CE01F482AE01F4828E01F4826E0012934
S113153007D0002925D0022905D0032905D0002091
S11315401CE01A481AE01A4818E01A4816E0012963
S113155007D0002917D0022905D0032905D000207F
S11315600CE015480AE0154808E0154806E015485F
S113157004E0154802E0154800E0002070471448D4
S1131580FCE70320FAE71348F8E71348F6E7C046F8
S1131590000C004200100042001400420008004207
S11315A00300050003000600030007000300010018
S11315B003001E0003001F000300090003000A00CB
S11315C003000B00030011000300120003001300CA
S11315D003000400030008000300100030B585B0C8
S11315E06A460F4B32CB32C21B6813600300009A69
S11315F0824211D0019A82420AD0029A824209D0D0
S11316000020039A9A4201D005B030BD033004E0B3
S1131610012002E0022000E00020C0B2F4E7C0464E
S11316205C3D00007047000030B50B4B1B78002B6D
S11316300ED10A4C0A4D25600A4B00221A606560DF
S11316405A60A5609A60E560DA600132024B1A7054
S11316508000024BC15030BD96000020980000204D
S1131660251600003001002010B582B001AC07231C
S11316702370013363700133A3700133E370024BB1
S11316809847205602B010BDDD15000010B5024B7E
S11316901B680020984710BD9800002010B5024B2D
S11316A05B680120984710BD9800002010B5024BDC
S11316B09B680220984710BD9800002010B5024B8B
S11316C0DB680320984710BD98000020F0B5DE4683
S11316D057464E464546E0B58DB005000C00160051
S11316E029600800804B9847020023680520DB0727
S11316F006D50DB03CBC90469946A246AB46F0BD1B
S1131700236817309B07F4D47849086A971C01238F
S1131710BB4003430B620BA9737F0B700D32D7B22E
S11317203800734B98473800724B9847707F0021FC
S1131730714B9847F37A6B71337DAB71737DEB71A9
S11317402B6898461800684B98470D3000220E23EA
S113175002A98C4663441A8033680393F3689A465B
S1131760B37D9B4673689946002B14D080235B0598
S1131770994530D1F37D002B31D133691F00C0B2BC
S11317805E4B984701000E2202AB9C46624438002F
S11317905B4B984720E0F37D002B0BD01023009384
S11317A000230E2202A98C466244B1693069554F68
S11317B0B84711E033691F00C0B2504B984701008D
S11317C01023009300230E2202A8844662443800AA
S11317D04C4FB84700E00020002800D089E72A6871
S11317E0039F138A1BB2002BFBDB0E2302AA944631
S11317F063441B884246538153461F434B461F4351
S11318005B465B071F43F37D002B01D104331F4369
S1131810317D4904737D1B040B43B17AF27A114381
S113182019433389FF2B03D08022520417431943F1
S1131830337F002B03D1344B9B789B0701D5802346
S11318401F432A68138A1BB2002BFBDB43465960F3
S11318502A68138A1BB2002BFBDB43461F600AABCA
S113186080221A7000225A70DA709A70336A0693D2
S1131870736A0793B36A0893F36A0393099300277F
S113188006AE06E02000214B984707E00137042FFD
S11318900DD0F9B2BB0098590028F3D0431CF5D001
S11318A00AA90870000CC0B2194B9847EEE7002350
S11318B0AB60EB602B61AB616B610022EB83AB83AC
S11318C02033EA540133EA540133EA540133EA542D
S11318D02868054B984704000E490F4B9847A4000D
S11318E00E4BE550002004E7DD1500000004004025
S11318F0992700000D27000095140000B52700006B
S1131900D71300000114000000200041E11400007E
S113191091280000F1190000291600003001002070
S1131920F8B506000C00150007680A4B9847F38BBE
S11319309BB2002B03D0084B98470520F8BDF583D4
S1131940054B9847B46105222323F254223B7B7351
S11319500020F3E71123000051230000F8B506002E
S11319600C00150007680A4B9847B38B9BB2002BF9
S113197003D0084B98470520F8BDB583054B98471D
S1131980746105222223F2541E3B7B730020F3E78B
S11319901123000051230000931C9B0019502021A7
S11319A0012393401A00435C1343435470470000DF
S11319B010B51723002A01D1180010BDC4790533CE
S11319C0002CF9D0014B98470300F5E721190000DA
S11319D010B51723002A01D1180010BD84790533EE
S11319E0002CF9D0014B98470300F5E75D1900007E
S11319F0F8B58000464BC5582C68238A1BB2002BCF
S1131A00FBDBA37B667B1E402023EB5C2122AF5CC7
S1131A101F40F30722D5EB8B9BB2002B1CD0AA6985
S1131A201378DBB2511CA961697901290ED09BB2EC
S1131A30DB05DB0D2383EB8B013B9BB2EB83002B9C
S1131A400CD1013323730133637307E05178090226
S1131A500B430232AA61EBE701232373B30706D5D4
S1131A600223237300222133EA54FB0716D473079D
S1131A704DD5AB8B9BB2002B47D0238ADBB25A07E0
S1131A8020D09A070ED51A222223EA54203B23821F
S1131A907B073CD52B692800984738E02800AB68C1
S1131AA09847E4E75A0705D51E222223EA541E3B31
S1131AB02382EDE7DB07EBD513222223EA54213BF3
S1131AC02382E5E7238BDB05DB0DDAB269690A7053
S1131AD06A69511C69616979012910D0AB8B013B9A
S1131AE09BB2AB83002B12D10433237300221E3329
S1131AF0EA54BB070BD5EB682800984707E01B0A9C
S1131B0053706B6901336B61E8E704232373F8BDF9
S1131B103001002010B58CB06846124B984703235F
S1131B206A465370013313730F4C10492000104B55
S1131B3098472268537E5BB2002BFBDB802189032C
S1131B400C4B19600F2393751376137802210B4302
S1131B501370054B1A68537E5BB2002BFBDB01202C
S1131B600CB010BD9D010000400100200040004267
S1131B70E501000000E100E0F0B583B00F00224B66
S1131B8019684B7E5BB2002BFBDB0B7B02221343F9
S1131B900B734B7E5BB2002BFBDB01240426022576
S1131BA001E014420AD10B7EDBB222001A401E422D
S1131BB000D02A431D42F4D03243F2E74B7E5BB29D
S1131BC0002BFBDB4A8B01AB1A8001230B760A7EC8
S1131BD0D2B21340540701D502242343920701D5FE
S1131BE0042213435B0701D502230B76019B036098
S1131BF006485843000B830018188001DC21044B6D
S1131C009847386003B0F0BD40010020E40C0000A8
S1131C105930000010B582B06846074B984700233E
S1131C206A461370054C06492000064B984720006D
S1131C30054B984702B010BD0D0700008C01002031
S1131C400048004221070000E907000010B582B0F7
S1131C500400632813D9194B1B78002B1ED0184B92
S1131C601C805620FF306043FA218900154B9847A9
S1131C7082B200211448154B984702B010BD0023CE
S1131C800E4A137001A90B7001224A708B70012057
S1131C900F4B984702220F4B5A61EEE70122074B84
S1131CA01A7001A900230B704A708B700120084B35
S1131CB098470222074B9A61D1E7C04608000020EA
S1131CC08A0100206D3100008C01002025080000ED
S1131CD0CD0900000044004170B584B00304181A13
S1131CE06421104B984706000F4B02221A70020A17
S1131CF05A7001AA0D4B13CB13C20D4D0D4C01A903
S1131D002800A0470028FAD1074B03221A705E70FE
S1131D10074D084C01A92800A0470028FAD104B0B7
S1131D2070BDC04659300000A80000206C3D000082
S1131D30E00100206910000030B585B001AA064B0F
S1131D400C3313CB13C2054D054C01A92800A04741
S1131D500028FAD105B030BD6C3D0000E001002040
S1131D606910000070B58AB0040064230093002356
S1131D706A46137113748022920302920122524222
S1131D806946CA818A816A460B770893D7338B8464
S1131D90164B0593164B0693164D17492800174BFF
S1131DA098472D682B8A1BB2002BFBDB2B68022281
S1131DB013432B600F4E3068114B98471F23184074
S1131DC01E3B83400F4A1360F088002310212A8AA7
S1131DD00A4204D101338342F9D310232B82200019
S1131DE0094B9847094B98470AB070BD0200080098
S1131DF002000900E001002000080042B10E0000CA
S1131E006916000000E100E0D91C0000391D000043
S1131E10F0B585B005000C0001A90E4B24330A006F
S1131E20C1CBC1C20C480D4B9847002300280ED1EA
S1131E300B4A93781B02D0781843286064235843D4
S1131E400849094B98470004000C2060012318003E
S1131E5005B0F0BD6C3D0000E0010020451000001D
S1131E60AC000020FFFF00006D310000024A13683F
S1131E70013313607047C046B000002010B584B031
S1131E8000236A46D3700293039313809370012353
S1131E9013710B4C0B4920000B4B984720000B4B44
S1131EA0984702220A4920000A4B98470221200041
S1131EB0094B984701212000084B984704B010BDF6
S1131EC00802002000140040D90A0000F9090000AB
S1131ED06D1E0000DD0B0000150C0000B90B0000A6
S1131EE0014B18687047C046B0000020014B1B68C6
S1131EF0181A7047B0000020002806DD034BC018F4
S1131F0000221A7001338342FBD170476C02002017
S1131F1010B5044C2078044B984700232370034ADF
S1131F20137010BDB4000020F91E0000B50000209D
S1131F3030B58DB00023214A1360214A1370214A21
S1131F4013708022D20500920193FF2269460A8110
S1131F508B72CB7296229201049201220A754A7501
S1131F608B75CB7506930B774B7780235B030393B9
S1131F70154B0893154B099301235B420A930B936A
S1131F80134D144C6A4614492800A0470028F9D17F
S1131F900F4D2C682000114B98471F2318401E3BFF
S1131FA083400F4A13602A68138A1BB2002BFBDBA1
S1131FB023680222134323600DB030BDD4010020F6
S1131FC080020020C4010020020010000200110061
S1131FD020020020CD160000000C0042691600000B
S1131FE000E100E070B5084C002208492000084DCB
S1131FF0A847012207492000A8472122A35C032106
S11320000B43A35470BDC04620020020111F0000E2
S113201099190000C521000010B50A00010002480A
S1132020024B984710BDC04620020020B1190000A1
S113203010B5012202490348034B984710BDC0461E
S11320406802002020020020D119000010B50722E8
S113205006490748074B98470023074A13600121A4
S1132060064A1170064A137010BDC046B03D000008
S113207020020020B1190000D401002080020020B9
S1132080C4010020F8B505003E4B1B78002B08D195
S11320903D493E4B9847002800D0F8BD3C4B98473B
S11320A0FBE70378572B0CD0442B54D0432B59D047
S11320B03849364B98470028EFD10022364B1A7026
S11320C0EBE78778303F002F3FDD0026042409E04A
S11320D02B1998783038C0B2304B98470136043405
S11320E0B74232DD2B5D4C2BF2D0462B11D0492B5D
S11320F016D0502BF2D12A19907830388300C018AA
S11321004000D378303BC01880B2254B9847013447
S1132110E4E72A1990783038C0B2224B9847DDE7BB
S11321202A199378303B980018184000D378303B34
S1132130C01880B21C4B584364211C4B9847643030
S113214080B21B4B98470134C8E7042219491A4846
S11321501A4B9847A1E70120104B98470022094BDE
S11321601A709AE78378312B08D00022144B1A7026
S1132170042210491048114B98478EE70122104B56
S11321801A70F5E7800200209C3D000039340000FD
S11321904D200000AC3D0000C4010020B129000026
S11321A0F5290000C9290000520300006D31000028
S11321B0D5290000A43D000020020020B119000030
S11321C06101002010B5114B1B78002B03D1104B7B
S11321D01B783C2B0AD00E4B1A783E2A0AD00D49A4
S11321E00B780D48C25401330B7010BD0122074B0C
S11321F01A70FAE70848094B9847064C2078084BB0
S1132200984700232370014A1370EEE7B5000020BD
S113221068020020B40000206C0200208520000029
S1132220F91E000070B50D4C012363700022A270EA
S1132230237021000F200A4EB0470A4D80231B0251
S1132240AB6121000120B0470223AB6121001C20B7
S1132250B04780235B05AB6170BDC046D801002048
S1132260CD0900000044004110B5040009490123D0
S11322704B7000228A700B700320074B9847002C88
S113228003D10822054B5A6110BD0822034B9A6101
S1132290FAE7C046D8010020CD09000000440041FF
S11322A0F8B5174C012363700027A7702370210031
S11322B00E20144DA847144E8023DB0173612100C6
S11322C00F20A84780231B02736121000120A84727
S11322D00223736101200D4B984721000A20A8476F
S11322E08023DB00736121001C20A84780235B0549
S11322F073612770677021001820A847F8BDC04695
S1132300D8010020CD0900000044004169220000EA
S11323100C4B1B68002B06D1EFF31083002B07D066
S11323200022094B1A70074A13680133136070477F
S113233072B6BFF35F8F0022044B1A700132024B56
S11323401A70F0E7B8000020BC0000201200002042
S1132350084B1A68013A1A601B68002B09D1064B16
S11323601B78002B05D00122044B1A70BFF35F8F3A
S113237062B67047B8000020BC00002012000020A4
S113238010B5072803D88000164B1B589F46002021
S113239027E0154BD86824E0144B1B6A9B059B0F60
S11323A01348D8401DE0104B18691AE00E4B1B6807
S11323B000209B0715D50D491022CB681A42FCD08A
S11323C0094B1B685B0701D40A480AE000200A4B4A
S11323D09847054B9B681B041B0C584301E0802065
S11323E0000210BDB83D0000C000002000080040FD
S11323F000127A00006CDC02B527000070B50C49AD
S11324000B6A0478857840780122104080014026C8
S1132410B34303432A40D20180208343134303225E
S1132420224012020348034013430B6270BDC046AE
S113243000080040FFFCFFFF072803D880001E4B64
S11324401B589F46172036E01C4A136A02210B438F
S1132450136200202FE0194A936902210B43936110
S1132460002028E0154A138A02210B43138200201E
S113247021E0124A938A02210B43938200201AE03E
S11324800F4B1A6802210A431A601B680D4A134055
S11324900A4A938411001022CB681A42FCD0084ADD
S11324A09168064BD96251689962126892B29A8413
S11324B0002000E000207047D83D000000080040E4
S11324C0C00000207FFF000030B585B0C222D200DA
S11324D01A4B9A601A4A53681E218B435360012396
S11324E06A4613700024174DE0B26946A8470134C8
S11324F01C2CF9D103A800244470012585700470B4
S1132500114B98470620114B9847114B9847114B94
S11325101C725C729C72DC7201956B465C700623C3
S11325206A46137014725472694600200A4B984725
S113253000200A4B984705B030BDC0460008004053
S11325400040004199270000FD23000039240000C9
S11325506125000000040040852500003D260000A0
S1132560064A936908210B4393610122044B1A70B4
S113257019000B781342FCD17047C0460004004098
S1132580000C004070B5060004000D782D020543D0
S11325904B78002B02D08023DB021D434B7A002BA7
S11325A002D080231B031D434868012810D9431E11
S11325B0184234D1022830D90223002201325B00B0
S11325C09842FBD812023243140080235B031D435C
S11325D00B7A002B02D080239B031D43134A5378AC
S11325E05BB2002BFBDB124B9847124B1E700F4A59
S11325F053785BB2002BFBDB0C4B9C601A005378C6
S11326005BB2002BFBDB094A5368802149020B4073
S11326101D435560084B984770BD0022D2E7040261
S1132620344380239B021D43D2E7C046000C004084
S113263011230000080C00405123000010B50400D1
S11326400B4A53785BB2002BFBDB0A4B98470A4BCF
S11326501C70074A53785BB2002BFBDB044A5168B9
S113266080235B020B435360044B984710BDC04664
S1132670000C004011230000040C00405123000012
S113268070B504001A4A53785BB2002BFBDB194B7C
S11326909847194B1C70164A53785BB2002BFBDB2E
S11326A0134E7068C004C00E144B98470500124BBB
S11326B01C707668F602F60F114B1C700C4A5378A6
S11326C05BB2002BFBDB0A4B9C682402240C0D4BF1
S11326D09847002E07D1012C07D9210028000A4B66
S11326E09847050001E00134E540280070BDC0466C
S11326F0000C004011230000040C00408123000062
S1132700080C0040512300005930000010B50400AB
S1132710064B9847064B1C70064A53888021C90112
S11327200B435380044B984710BDC046112300004F
S1132730020C0040000C00405123000010B50400BE
S11327400F4B98470F4B1C700F4A53881B05180FEB
S113275053880E490B40538053880D490B405380D6
S113276011008022D2014B881342FCD106494A88C9
S113277003020648024013434B80064B984710BDA2
S113278011230000020C0040000C0040FFF0FFFF8A
S1132790FFBFFFFF5123000010B50C78240204434F
S11327A0024B9847A4B2024B5C8010BD3D27000049
S11327B0000C004010B50400064B9847064B1C70F3
S11327C0064B5C882405240F054B98472000054BD5
S11327D0984710BD11230000020C0040000C00407B
S11327E0512300008126000030B5D378002B35D169
S11327F01378802B29D01B06802464022343547849
S11328000225AC4306D19478002C20D18024A40264
S1132810234341605478013C012C1CD90D042D0C38
S1132820A024E4052C431C4384620D0CD02424060C
S11328302C431C438462D478002C22D15B031CD526
S11328409378012B1ED0416117E00023D7E7C02401
S1132850E4022343DDE70D4C2340DFE741600C0431
S1132860240CA023DB05234383620C0CD0231B061A
S113287023438362D378002B03D15378013B012B8C
S113288002D930BD8161F8E78160FAE7FFFFFBFF01
S113289010B50A00C1090023002904D14309DB0152
S11328A005498C4663441F242040012181401800BF
S11328B0024B984710BDC04600440041E927000080
S11328C07047000010B5054B9847054B9847054BDA
S11328D09847054B9847054B984710BDC9240000FD
S11328E025220000C128000061090000C128000061
S11328F0FEE7000010B51A4A1A4B9A4211D01A008A
S1132900194B9A420DD2194A03339B1A9B0801337F
S11329109B000022134812498C58845004329A4276
S1132920FAD1134A134B9A420AD2D34311495B1882
S113293003218B4304339B18002102C29342FCD130
S11329400D4AFF210D4B8B4393600D4A53687F3929
S11329500B4353600B4B98470B4B9847FEE7C0461D
S1132960703E0000000000207800002004000020D9
S1132970780000208802002000ED00E00000000044
S11329800040004199330000792E00000300064AFC
S11329901268002A04D0044A1068C31813607047F0
S11329A00249014A1160F6E7D40000208822002081
S11329B0034A107000239372024A13607047C046A2
S11329C07C010020BC010020014B58707047C046B8
S11329D07C01002010B5044BD8806421034B984738
S11329E0034B188010BDC0467C0100205930000004
S11329F0C6010020014B58807047C0467C0100206E
S1132A0010B50F4A0F4B1A6001200F4B98470F4B1C
S1132A10DC22FF32DA8004210D4A118003225A702D
S1132A200C4A1A8101220C4B1A700C4B1B78002B98
S1132A3001D00B4B1A7001200A4B984710BDC046B9
S1132A40E11E0000B0010020B12900007C0100203B
S1132A50C6010020307500006C01002080020020B7
S1132A60880100207101000010B501200A4B98472D
S1132A70DC22FF32094BDA80D83AFF3A084B1A803D
S1132A800022084B1A70084B1B78002B02D001322D
S1132A90064B1A7010BDC046B12900007C0100200D
S1132AA0C60100206C010020800200208801002063
S1132AB010B5144B1868144B9847144B1989144BD0
S1132AC0984700290DD1114B1B78012B0AD0032BF9
S1132AD010D0104B98470B4B1860FA2040000E4B57
S1132AE0984710BD03200D4B9847FA22D200074B9C
S1132AF01A81EEE70120094B9847094A034B1A81D2
S1132B00E7E7C046B0010020ED1E00007C01002074
S1132B1065310000E11E000045010000B1290000FC
S1132B203075000010B5114B987A00280DD0104B69
S1132B301C880E498B88E3189BB28B80CA88121BB1
S1132B40934210DB00228A720CE0094B1A88074971
S1132B508B889B1A9BB28B806432934202DC0122E5
S1132B608A72012010BD0020FCE7C0467C010020D1
S1132B70C601002010B5002803D10020034B98475C
S1132B8010BD034BD888014B9847F9E74D1C000052
S1132B907C01002010B5254B1B78002B28D1244B39
S1132BA01B78012B27D0002B29D0224B1868224BED
S1132BB098471F4B5B789900C91809311F4B9847F8
S1132BC000291FD11E4B98471A4B1860184B1B78CD
S1132BD0022B18D0164B1B78032B13D1194B1B68EF
S1132BE0DC22FF32934215DC0133164A136009E0FC
S1132BF0154B9847D3E70120144B984702E0002077
S1132C00124B984710BD0A4B9888114B9847114BAB
S1132C109847DFE700220B4B1A60054B987A013284
S1132C2050409872094B9847ECE7C0466C0100206D
S1132C307C010020B8010020ED1E00006531000079
S1132C40E11E0000BC010020B12A0000752B000029
S1132C504D1C0000252B000010B50B4B1B78002BDE
S1132C6003D10122084B1A7010BD0022074B1A70C1
S1132C700020074B9847074B8022D201DA6180225B
S1132C801202DA61F0E7C046C4010020800200208D
S1132C90692200000044004100B583B00023019381
S1132CA00093204B9847694601A81F4B98471F4B38
S1132CB0009A9A4214D91E4B1B786420002B01D031
S1132CC003B000BD01331A4A13701A490B705A3805
S1132CD0194B98478022D200184B9A616420EFE781
S1132CE0134B1B78002B0ED1009B154A00209342F6
S1132CF0E6D964305843134B9C4660448221C90092
S1132D00114B9847DCE70022094B1A70094901234B
S1132D100B700A20084B98478022D200074B5A6157
S1132D20E2E7C046151B0000791B0000F410000008
S1132D3078010020D8010020CD09000000440041A2
S1132D40E30C0000F0F6FAFF5930000000B583B040
S1132D50002301930093694601A8024B9847009809
S1132D6003B000BD111E000070B5274B9847274BD8
S1132D7098470125264B1D70BFF35F8F62B6254E21
S1132D8000243460244B1C60244B1C60244B1C60C6
S1132D90244B1C70244B1C70244B1D70244B1C7042
S1132DA0244B1C70244B1C70244B1C70244B1C7033
S1132DB0244B9847244B1C7003225A7007325A80C4
S1132DC09C725A329A80DC22FF32DA801F4A1A81BE
S1132DD01F4B1D7004221F4B1A801F4B98473060F5
S1132DE01E4B984730681E4B98471E4B98473060DF
S1132DF01D4B98471D4B98471D4B98471D4B1C7006
S1132E005D709C7070BDC046A122000005010000E9
S1132E10120000207401002064010020D001002071
S1132E20BC010020C40100208801002061010020B1
S1132E30C5010020780100206C010020B4010020AD
S1132E406D010020151C00007C010020307500007D
S1132E5060010020C6010020992C000025220000FA
S1132E60651D00004D2D0000311F0000E51F00000E
S1132E707D1E0000D801002070B582B0554B9847E4
S1132E80554B9847554E564D564C29E0564B98474E
S1132E9044E0564B1B78002B40D0554B98473DE0FF
S1132EA00022544B1A70514B1A7853496846534BBD
S1132EB0984708216846524B98470BE0514B984776
S1132EC0514B1A68514968464C4B9847082168464B
S1132ED04B4B98474E4B98474E4B1B78002B42D197
S1132EE0B047A84720684C4B9847FA21C9004B4B80
S1132EF098470029F0D14A4B98473A4B1860012073
S1132F00484B9847484B98473F4B1860474B5B8862
S1132F109842BED8354B1B78002BB7D0444B1B7856
S1132F20002B15D0334B1B78002BB9D1414B1B78A8
S1132F30002BC3D000223F4B1A703C4B1A783E49F9
S1132F4068462E4B9847082168462D4B9847C1E7A1
S1132F503A4B1B78002BBFD00022384B1A7001204B
S1132F60374B9847B8E7374B18682B4B9847642181
S1132F702A4B98470029B3D1294B9847314B186005
S1132F800120284B9847304B1B6ADB011ED52F4B81
S1132F901B68272BA4D801332C4A1360142B9FD110
S1132FA0234B1B78002B02D00122224B1A701F4B9B
S1132FB01B78002B04D1264B1878264B98478FE7B3
S1132FC0234A13700020234B984789E700221F4BA4
S1132FD01A6085E7C5280000692D0000952B0000C4
S1132FE031200000D4010020012A00006C010020DF
S1132FF0692A000088010020F83D0000F533000034
S113300019200000992C000074010020103E0000DB
S1133010592C000061010020ED1E00006531000004
S1133020E11E0000710100004D2D00007C01002014
S113303080020020C5010020043E0000C4010020DD
S113304069220000C80100200044004164010020FE
S113305060010020B1290000002243088B4274D390
S113306003098B425FD3030A8B4244D3030B8B4285
S113307028D3030C8B420DD3FF22090212BA030C8E
S11330808B4202D31212090265D0030B8B4219D36F
S113309000E0090AC30B8B4201D3CB03C01A52418F
S11330A0830B8B4201D38B03C01A5241430B8B42D7
S11330B001D34B03C01A5241030B8B4201D30B03C0
S11330C0C01A5241C30A8B4201D3CB02C01A5241E7
S11330D0830A8B4201D38B02C01A5241430A8B42AA
S11330E001D34B02C01A5241030A8B4201D30B0293
S11330F0C01A5241CDD2C3098B4201D3CB01C01AAD
S1133100524183098B4201D38B01C01A52414309B6
S11331108B4201D34B01C01A524103098B4201D3A4
S11331200B01C01A5241C3088B4201D3CB00C01A11
S1133130524183088B4201D38B00C01A5241430889
S11331408B4201D34B00C01A5241411A00D20146AE
S1133150524110467047FFE701B5002000F0F0F837
S113316002BDC0460029F7D076E7704703460B43FB
S11331707FD4002243088B4274D303098B425FD36C
S1133180030A8B4244D3030B8B4228D3030C8B4298
S11331900DD3FF22090212BA030C8B4202D312127E
S11331A0090265D0030B8B4219D300E0090AC30B53
S11331B08B4201D3CB03C01A5241830B8B4201D300
S11331C08B03C01A5241430B8B4201D34B03C01AE9
S11331D05241030B8B4201D30B03C01A5241C30A61
S11331E08B4201D3CB02C01A5241830A8B4201D3D2
S11331F08B02C01A5241430A8B4201D34B02C01ABC
S11332005241030A8B4201D30B02C01A5241CDD260
S1133210C3098B4201D3CB01C01A524183098B42AB
S113322001D38B01C01A524143098B4201D34B0194
S1133230C01A524103098B4201D30B01C01A5241F7
S1133240C3088B4201D3CB00C01A524183088B427E
S113325001D38B00C01A524143088B4201D34B0067
S1133260C01A5241411A00D20146524110467047D9
S11332705DE0CA0F00D04942031000D340425340DE
S113328000229C4603098B422DD3030A8B4212D39E
S1133290FC22890112BA030A8B420CD389019211D0
S11332A08B4208D3890192118B4204D389013AD00D
S11332B0921100E08909C3098B4201D3CB01C01AE2
S11332C0524183098B4201D38B01C01A52414309F5
S11332D08B4201D34B01C01A524103098B4201D3E3
S11332E00B01C01A5241C3088B4201D3CB00C01A50
S11332F0524183088B4201D38B00C01A5241D9D268
S113330043088B4201D34B00C01A5241411A00D2E8
S11333100146634652415B10104601D34042002BE4
S113332000D54942704763465B1000D3404201B563
S1133330002000F005F802BD0029F8D016E7704718
S11333407047C046F0B5CE46474615042D0C2E00F6
S113335080B50704140C3F0C9946030C7E435D436F
S1133360674363437F19340CE4199C46A54203D98F
S113337080235B029846C4444B465143434336047E
S1133380360C250C24046544A41959184919200045
S11333900CBC90469946F0BD70B500260C4D0D4C02
S11333A0641BA410A64209D1002600F051FD0A4D69
S11333B00A4C641BA410A64205D170BDB300EB589F
S11333C098470136EEE7B300EB5898470136F2E729
S11333D05C3E00005C3E00005C3E0000603E00007D
S11333E0002310B59A4200D110BDCC5CC454013303
S11333F0F8E700000EB410B59DB002A90290086170
S11334000B48822488604861012040421FABC88178
S1133410084804CBA400006801938C8100F078F87C
S11334200023029A13701DB010BC08BC03B01847E7
S1133430FFFFFF7F1400002002780B78002A03D0DE
S1133440013001319A42F7D0D01A7047F0B58E6836
S113345085B007000C00039201939E4239D8902353
S11334608A89DB001A4234D00325096923685B1A70
S11334700293636902985D43EB0F5D19019B6D1024
S113348001331B18AB4200D91D00530532D5290066
S1133490380000F031FB061E09D10C233B604023A9
S11334A00120A28940421343A38105B0F0BD029AD2
S11334B02169FFF795FFA389144A1A408023134317
S11334C0A381029B2661F61826606561019EED1AB0
S11334D0A560019BB34200D21E003200039920680C
S11334E000F0ADFAA36800209B1BA36023689E191B
S11334F02660DAE72A00380000F05CFB061EE0D103
S11335002169380000F0AEFAC7E7C0467FFBFFFF31
S1133510F0B59FB0029005938B890F0016001B062F
S113352011D50B69002B0ED1402100F0E5FA38606B
S11335303861002805D10C23029A013813601FB0AA
S1133540F0BD40237B61002306AD6B6120336B76B5
S11335501033AB7634002378002B47D1A31B04939C
S11335600DD0A31B320039000298FFF76FFF431CF4
S113357000D1B5E06A69049B944663446B61237887
S1133580002B00D1ACE00122002352426A6002A960
S11335905432521801342B60EB60AB601370AB658E
S11335A0584E05222178300000F03EFA621C0028B3
S11335B020D12968CB0604D5532302AE20309B19B1
S11335C018700B0704D553232B2002AE9B191870D7
S11335D023782A2B16D000200A21099B2278303A1E
S11335E0092A55D9002815D0099313E0252BB5D005
S11335F00134B0E70123801B8340296814000B4386
S11336002B60CDE7059B181D1B680590002B39DB4B
S11336100993140023782E2B0BD16378621C2A2B78
S11336203ED1059B02341A1D1B680592002B34DB26
S11336300793354E21780322300000F0F5F9002875
S113364006D04023801B83402A68013413432B6037
S1133650217806222D48661C297600F0E5F9002819
S113366046D02B4B002B2FD12968059B0722C90577
S113367028D59B189343083305936B69039A9B18C9
S11336806B6167E75B42EB6002230B432B60C0E78F
S11336904B4301349B180120A0E701235B42C7E799
S11336A0002314000A201A006B602178303909299C
S11336B003D9002BBDD00792BBE742430134521813
S11336C00123F2E70733D5E705AB00933A00114B2A
S11336D02900029800E000BF0390039B0133CCD182
S11336E0BB890B985B0600D429E70120404226E7FA
S11336F005AB00933A00074B2900029800F07AF8D2
S1133700EAE7C0461C3E0000223E0000263E0000C0
S1133710000000004D340000F7B5150001938A68DD
S11337200B6900900C00934200DA130022002B6016
S113373043321278002A01D001332B6023689B06A0
S113374002D52B6802332B60062723681F4027D03D
S1133750230043331B785A1E93412268920630D4C7
S11337602200019943320098089EB047431C25D09B
S1133770062320682A68E16803400025042B03D14E
S11337808D1AEB43DB171D40A3682269934201DDC8
S11337909B1AED180027BD4220D1002010E001370C
S11337A0E3682A689B1A9F42D2DA22000123193265
S11337B001990098089EB047431CF0D10120404273
S11337C0FEBD3020E1184331087021005A1C4531F8
S11337D00978A218433202331170C1E72200012391
S11337E01A3201990098089EB047431CE6D001376D
S11337F0D1E70000F0B58BB006920A00433207937C
S1133800059004920A7E0C00109B6E2A00D18FE072
S113381017D8632A2CD008D8002A00D199E0582A56
S113382054D026004236327029E0642A01D0692A35
S1133830F7D121681A68080623D5111D1960156887
S113384025E0732A00D188E008D86F2A29D0702A8D
S1133850E7D1202209680A43226003E0752A20D0B8
S1133860782ADED122007821453211706C4A30E08A
S11338700E001A684236111D196013683370012353
S113388079E04906D9D5111D19600023D55E002DB4
S113389003DA2D23049A6D421370624B0A270393B3
S11338A02FE020681968050603D5081D18600D6807
S11338B005E04006F9D50D68081D1860ADB2594BF6
S11338C0082703936F2A18D00A2716E045310A7097
S11338D0544A03921A682168101D18601568080676
S11338E022D5CB0702D52023194321601027002DB0
S11338F003D1202322689A43226023000022433309
S11339001A706368A360002B5CDB04222168914376
S11339102160002D58D1049E002B64D02600039B07
S113392042361B7833705EE04806DAD5ADB2D8E78C
S113393009681A68080605D5111D196013686269BB
S11339401A6006E04906F7D5111D19601368A28AAA
S11339501A800023049E236154E01A68111D196023
S1133960166800216268300000F05EF8002801D07B
S1133970801B6060636823610023049A137041E034
S11339802369320006990598079DA847431C43D034
S1133990236800259B070FD4099BE06898423DDA11
S11339A018003BE022000123193206990598079E6E
S11339B0B047431C30D00135E368099A9B1A9D42F5
S11339C0F0DBE9E7002DA9D0049E28003900FFF7B9
S11339D0C9FB039B013E5B5C280033703900FFF791
S11339E03BFB051EF1D1082F09D12368DB0706D55F
S11339F063682269934202DC3023013E3370049BE6
S1133A009B1B2361079B09AA00932100069B059831
S1133A10FFF782FE431CB3D1012040420BB0F0BD3E
S1133A203E3E00002D3E0000C9B28218904201D1F2
S1133A300020704703788B42FBD00130F6E710B5C5
S1133A40884202D98B18984208D300239A4207D09F
S1133A50CC5CC4540133F9E78B5C8354013AFBD248
S1133A6010BD000070B50500002910D00C1F23689C
S1133A70002B00DAE418280000F0D4F81D4A13687B
S1133A80002B05D163601460280000F0CCF870BDF1
S1133A90A34209D9216860188342F3D118685B688E
S1133AA041182160EEE713005A68002A01D0A242AF
S1133AB0F9D919685818A0420BD120680918581868
S1133AC019608242E0D110685268411819605A6046
S1133AD0DAE7A04202D90C232B60D5E721686018ED
S1133AE0824203D1106852684118216062605C60B0
S1133AF0CAE7C046D8000020032370B5CD1C9D43FF
S1133B00083506000C2D1ED20C25A9421DD8300004
S1133B1000F088F8254A14682100002919D1244CA2
S1133B202368002B03D1300000F06AF820602900DC
S1133B30300000F065F8431C2CD10C2330003360B6
S1133B4000F071F803E0002DDFDA0C23336000206D
S1133B5070BD0B685B1B1AD40B2B03D90B60CC18FC
S1133B60256003E08C420ED163681360300000F0DE
S1133B705AF8200007220B30231D9043C31AE7D0C4
S1133B805A42E250E4E74B6863600C00EEE70C0035
S1133B904968C2E70323C41C9C43A042E0D0211A15
S1133BA0300000F02DF8431CDAD1C6E7D80000201D
S1133BB0DC000020F8B507000D001600002905D12F
S1133BC01100FFF799FF04002000F8BD002A03D17B
S1133BD0FFF748FF3400F7E700F026F82C00864290
S1133BE0F2D931003800FFF787FF041EECD029001A
S1133BF03200FFF7F5FB29003800FFF733FFE3E756
S1133C00002370B5064C050008002360FEF7BEFED5
S1133C10431C03D12368002B00D02B6070BDC04629
S1133C2084020020704770470B1F1B68181F002B6D
S1133C3001DA0B58C0187047D80300002A060000A8
S1133C402A0600002A0600002A0600002A060000B0
S1133C502A0600002A0600002A0600002A060000A0
S1133C602A0600002A0600002A0600002A06000090
S1133C702A0600002A060000B80300002A060000F5
S1133C802A0600002A0600002A0600002A06000070
S1133C902A0600002A0600002A0600002A06000060
S1133CA02A0600002A0600002A0600002A06000050
S1133CB02A0600002A060000D00300002A0600009D
S1133CC02A0600002A0600002A0600002A06000030
S1133CD02A0600002A0600002A0600002A06000020
S1133CE02A0600002A0600002A0600002A06000010
S1133CF02A0600002A060000C80300000804000089
S1133D0098030000A8030000A003000002000000C4
S1133D1003000000FFFF0000FFFF0000040000009C
S1133D20050000000600000007000000FFFF00007F
S1133D30FFFF0000FFFF0000FFFF0000FFFF000087
S1133D40FFFF0000FFFF0000FFFF0000080000006D
S1133D50090000000A0000000B00000000080042F7
S1133D60000C0042001000420014004264000200F3
S1133D70A8000020000000006400020010000020E1
S1133D8000000000640002000C000020000000009D
S1133D9064000400AC000020000000004F43544FB6
S1133DA0000000003C4F4B3E000000004F4B000061
S1133DB03C424F4152443E00922300008E230000B7
S1133DC08E230000DE230000DE230000A623000073
S1133DD098230000AC230000642400004424000065
S1133DE044240000B424000056240000722400007F
S1133DF048240000802400003C553B503D2531758B
S1133E003B3E00003C553B4C3D2531753B3E00009C
S1133E103C423D2533753B3E00000000232D302BF2
S1133E202000686C4C0065666745464700303132B7
S1133E30333435363738394142434445460030310E
S1133E40323334353637383961626364656600006D
S1133E50F8B5C046F8BC08BC9E467047CD000000CB
S1133E60F8B5C046F8BC08BC9E467047A5000000E3
S1133E70401F00000800000001000000013C000099
S1133E80012E0100180000200000000000000000C6
S1133E90000000000000000000000000000000001E
S1133EA0000000000000000000000000000000000E
S1133EB000000000000000000000000000000000FE
S1133EC000000000000000000000000000000000EE
S1133ED000000000000000000000000000000000DE
S10B3EE00000000000000000D6
S90328F5DF
